:04000000B0EF7FF0EE
:10FF6000026A016A0001B5EF7FF0BDEC7FF0D6ECCC
:10FF70007FF0B7EF7FF000EF00F0070E926E000EFB
:10FF8000936E000E946E000E806E000E816E000E59
:10FF9000826E000E896E000E8A6E000E8B6E000E51
:10FFA0007E6E000E016E000E026E120080A0DBEF6E
:10FFB0007FF0DDEF7FF0F3EF7FF0012A140E016494
:10FFC000E4EF7FF0E6EF7FF0EAEF7FF0000E016EE6
:10FFD000010E021A410E036EEE0EE82EFED7032E1E
:10FFE000FCD700F000F00250D8B4F9EF7FF0FBEF3F
:10FFF0007FF0FEEF7FF08B82FFEF7FF08B9212009D
:020000040020DA
:08000000FFFFFFFFFFFFFFFF00
:020000040030CA
:0E000000FF021F1EFF8180FF0FC00FE00F40A8
:00000001FF
