:04000000C9EF7FF0D5
:10FF92000001DFEF7FF0070E926E000E936E000EEF
:10FFA200946E000E806E000E816E000E826E000E48
:10FFB200896E000E8A6E000E8B6E1200CCEC7FF002
:10FFC2008BB0E6EF7FF0E9EF7FF0010EEAEF7FF012
:10FFD200000EFF0A016E8B500118FE0B01188B6E8A
:10FFE200070E026E580E016E5A0EE82EFED7012E33
:0EFFF200FCD7022EFAD7E1EF7FF000EF00F00F
:020000040020DA
:08000000FFFFFFFFFFFFFFFF00
:020000040030CA
:0E000000FF021F1EFF8180FF0FC00FE00F40A8
:00000001FF
